:020000040800F2
:100000000000022089010008B9010008BD010008B4
:10001000C1010008C5010008C90100080000000076
:10002000000000000000000000000000D1010008F6
:100030000000000000000000D5010008F9020008DF
:10004000D9010008D9010008D9010008D901000828
:10005000D9010008D9010008D9010008D901000818
:10006000D9010008D9010008D9010008D901000808
:10007000D9010008D9010008D9010008D9010008F8
:10008000D9010008D9010008D9010008D9010008E8
:10009000D9010008D9010008D9010008D9010008D8
:1000A000D9010008D9010008D9010008D9010008C8
:1000B000D9010008D9010008D9010008D9010008B8
:1000C000D9010008D9010008D9010008D9010008A8
:1000D000D9010008D9010008D9010008D901000898
:1000E000D9010008D9010008D9010008D901000888
:1000F000D9010008D9010008D9010008D901000878
:10010000D9010008D9010008D9010008D901000867
:10011000D9010008D9010008D9010008D901000857
:10012000D9010008D9010008D9010008D901000847
:10013000D9010008D9010008D9010008D901000837
:10014000D9010008D9010008D9010008D901000827
:10015000D9010008D9010008D9010008D901000817
:10016000D9010008D9010008D9010008D901000807
:10017000D9010008D9010008D9010008D9010008F7
:08018000D9010008D9010008B3
:10018800FFE714481449154A884206D091421CBF1B
:1001980050F8043B41F8043BF8D14FF000001049F7
:1001A800104A914202DA41F8040BFAE70E4A104766
:1001B800FFF7FEBFFFF7FEBFFFF7FEBFFFF7FEBF6B
:1001C800FFF7FEBFFFF7FEBFFFF7FEBFFFF7FEBF5B
:1001D800FFF7FEBF380400080000002000000020E0
:1001E80000000020000000201704000880B400AFC1
:1001F800164B1B6B154A43F004031363144B1B681F
:10020800134A43F440631360104B5B6C0F4A43F48A
:10021800807353640F4B0F4A1B6813600E4B0E4AD2
:100228005B6853600C4B9B680B4A43F00203936076
:10023800094B00225A63084B5B6B074A43F00F03D4
:10024800536300BFBD4680BC704700BF0038024002
:1002580000080240042301400020014080B400AFA0
:1002680000BF064B1B6803F00203002BF9D0034BB9
:10027800DB6C9BB21846BD4680BC7047002001402D
:1002880080B400AF074B9B68064A43F001039360B4
:10029800044B9B68034A43F08043936000BFBD460C
:1002A80080BC70470020014080B400AF044B9B68BD
:1002B800034A23F08043936000BFBD4680BC70476B
:1002C8000020014080B400AF074B00221A60064BA3
:1002D80000229A60044B054A5A60034B07221A60B1
:1002E80000BFBD4680BC704710E000E0FF23F4006B
:1002F80080B582B000AFFFF7B1FF0346FB80FB88F3
:10030800DBB2184600F068F8FB881B0A9BB2DBB228
:10031800184600F061F800BF0837BD4680BD0000F0
:1003280080B400AF294B1B6B284A43F001031363C9
:10033800274B1B68264A43F420131360244B9B6801
:10034800234A43F4A0039360214B5B6A204A43F499
:10035800EE6353621D4B5B6C1C4A43F010035364FD
:100368001C4B0022DA601B4BDB681A4A43F400532B
:10037800D360184BDB68174A23F48053D360154BBE
:10038800144A1B691361134B5B69124A23F08003FB
:100398005361104B5B690F4A23F0400353610D4BC7
:1003A8009B680C4A43F08B0393600A4BDB68094A4D
:1003B80043F00803D360074BDB68064A43F00403A5
:1003C800D36000BFBD4680BC704700BF0038024004
:1003D800000002400010014080B483B000AF034623
:1003E800FB71084AFB79536000BF064B1B6803F09A
:1003F8004003002BF9D000BF00BF0C37BD4680BCBE
:10040800704700BF0010014080B400AFFEE780B520
:1004180000AFFFF7EBFEFFF733FFFFF781FFFFF7B2
:1004280051FFFFF7F1FFFFF73FFF0023184680BD9C
:040000050800018965
:00000001FF
