:020000040800F2
:100000000000022089010008B9010008BD010008B4
:10001000C1010008C5010008C90100080000000076
:10002000000000000000000000000000D1010008F6
:100030000000000000000000D5010008B103000826
:10004000D9010008D9010008D9010008D901000828
:10005000D9010008D9010008D9010008D901000818
:10006000D9010008D9010008D9010008D901000808
:10007000D9010008D9010008D9010008D9010008F8
:10008000D9010008D9010008D9010008D9010008E8
:10009000D9010008D9010008D9010008D9010008D8
:1000A000D9010008D9010008D9010008D9010008C8
:1000B000D9010008D9010008D9010008D9010008B8
:1000C000D9010008D9010008D9010008D9010008A8
:1000D000D9010008D9010008D9010008D901000898
:1000E000D9010008D9010008D9010008D901000888
:1000F000D9010008D9010008D9010008D901000878
:10010000D9010008D9010008D9010008D901000867
:10011000D9010008D9010008D9010008D901000857
:10012000D9010008D9010008D9010008D901000847
:10013000D9010008D9010008D9010008D901000837
:10014000D9010008D9010008D9010008D901000827
:10015000D9010008D9010008D9010008D901000817
:10016000D9010008D9010008D9010008D901000807
:10017000D9010008D9010008D9010008D9010008F7
:08018000D9010008D9010008B3
:10018800FFE714481449154A884206D091421CBF1B
:1001980050F8043B41F8043BF8D14FF000001049F7
:1001A800104A914202DA41F8040BFAE70E4A104766
:1001B800FFF7FEBFFFF7FEBFFFF7FEBFFFF7FEBF6B
:1001C800FFF7FEBFFFF7FEBFFFF7FEBFFFF7FEBF5B
:1001D800FFF7FEBF1C0400080000002000000020FC
:1001E8000000002000000020E503000880B400AFF4
:1001F8000A4B1B68094A43F001031360084B1B684C
:10020800074A43F480331360054B9B68044A43F460
:100218008023936000BFBD4680BC704730380240E1
:100228000000024080B400AF044B5B69034A83F4CA
:100238008073536100BFBD4680BC70470000024018
:1002480080B400AF294B1B68284A43F001031360B0
:10025800274B1B68264A43F420131360244B9B68E2
:10026800234A43F4A0039360214B5B6A204A43F47A
:10027800EE6353621F4B1B681E4A43F01003136062
:100288001D4B0022DA601C4BDB681B4A43F4005309
:10029800D360194BDB68184A23F48053D360164B9C
:1002A800154A1B691361144B5B69134A23F08003D9
:1002B8005361114B5B69104A23F0400353610E4BA5
:1002C8009B680D4A43F08B0393600B4BDB680A4A2B
:1002D80043F00803D360084BDB68074A43F0040384
:1002E800D36000BFBD4680BC704700BF30380240B5
:1002F80000000240443802400010014080B582B03E
:1003080000AF786006E07B685A1C7A601B78184654
:1003180000F00AF87B681B78002BF4D100BF00BFFF
:100328000837BD4680BD000080B483B000AF0346E7
:10033800FB71084AFB79536000BF064B1B6803F04A
:100348004003002BF9D000BF00BF0C37BD4680BC6E
:10035800704700BF0010014080B400AF00BF064BDB
:100368001B6803F02003002BF9D0034B5B68DBB25A
:100378001846BD4680BC70470010014080B400AFED
:10038800074B00221A60064B00229A60044B054A6C
:100398005A60034B07221A6000BFBD4680BC7047F5
:1003A80010E000E0FF23F40080B500AFFFF73AFF4C
:1003B8000248FFF7A3FF00BF80BD00BF000400088C
:1003C80080B582B000AF0448FFF798FFFFF7C4FF7D
:1003D8000346FB71FAE700BF0C04000880B500AFC4
:1003E800FFF704FFFFF72CFFFFF7C8FFFFF7E8FF51
:0803F8000023184680BD00003F
:1004000053656E6420446174610A000048656C6C39
:0C0410006F20576F726C64210A0000001E
:040000050800018965
:00000001FF
